{
  "contractName": "orderBook",
  "abi": [
    {
      "constant": true,
      "inputs": [
        {
          "name": "",
          "type": "uint256"
        }
      ],
      "name": "registeredMeters",
      "outputs": [
        {
          "name": "",
          "type": "address"
        }
      ],
      "payable": false,
      "stateMutability": "view",
      "type": "function"
    },
    {
      "constant": false,
      "inputs": [],
      "name": "register",
      "outputs": [],
      "payable": true,
      "stateMutability": "payable",
      "type": "function"
    },
    {
      "constant": true,
      "inputs": [
        {
          "name": "",
          "type": "uint256"
        }
      ],
      "name": "buyOrders",
      "outputs": [
        {
          "name": "producer",
          "type": "address"
        },
        {
          "name": "price",
          "type": "uint32"
        },
        {
          "name": "energy",
          "type": "uint64"
        },
        {
          "name": "meterAddress",
          "type": "address"
        },
        {
          "name": "timestamp",
          "type": "uint64"
        }
      ],
      "payable": false,
      "stateMutability": "view",
      "type": "function"
    },
    {
      "constant": true,
      "inputs": [
        {
          "name": "",
          "type": "uint256"
        }
      ],
      "name": "sellOrders",
      "outputs": [
        {
          "name": "producer",
          "type": "address"
        },
        {
          "name": "price",
          "type": "uint32"
        },
        {
          "name": "energy",
          "type": "uint64"
        },
        {
          "name": "timestamp",
          "type": "uint64"
        }
      ],
      "payable": false,
      "stateMutability": "view",
      "type": "function"
    },
    {
      "constant": true,
      "inputs": [
        {
          "name": "",
          "type": "address"
        }
      ],
      "name": "sellIndex",
      "outputs": [
        {
          "name": "",
          "type": "uint256"
        }
      ],
      "payable": false,
      "stateMutability": "view",
      "type": "function"
    },
    {
      "anonymous": false,
      "inputs": [
        {
          "indexed": true,
          "name": "producer",
          "type": "address"
        },
        {
          "indexed": true,
          "name": "price",
          "type": "uint32"
        },
        {
          "indexed": false,
          "name": "energy",
          "type": "uint64"
        }
      ],
      "name": "sellEvent",
      "type": "event"
    },
    {
      "anonymous": false,
      "inputs": [
        {
          "indexed": true,
          "name": "producer",
          "type": "address"
        },
        {
          "indexed": false,
          "name": "price",
          "type": "uint32"
        },
        {
          "indexed": false,
          "name": "energy",
          "type": "uint64"
        },
        {
          "indexed": false,
          "name": "meterAddress",
          "type": "address"
        }
      ],
      "name": "buyEvent",
      "type": "event"
    },
    {
      "constant": false,
      "inputs": [
        {
          "name": "aprice",
          "type": "uint32"
        },
        {
          "name": "aenergy",
          "type": "uint64"
        },
        {
          "name": "atimestamp",
          "type": "uint64"
        }
      ],
      "name": "sellEnergy",
      "outputs": [],
      "payable": false,
      "stateMutability": "nonpayable",
      "type": "function"
    },
    {
      "constant": false,
      "inputs": [
        {
          "name": "aproducer",
          "type": "address"
        },
        {
          "name": "aprice",
          "type": "uint32"
        },
        {
          "name": "aenergy",
          "type": "uint64"
        },
        {
          "name": "mAddress",
          "type": "address"
        },
        {
          "name": "atimestamp",
          "type": "uint64"
        }
      ],
      "name": "buyEnergy",
      "outputs": [],
      "payable": false,
      "stateMutability": "nonpayable",
      "type": "function"
    }
  ],
  "bytecode": "0x6080604052610de3806100136000396000f3fe608060405260043610610083576000357c0100000000000000000000000000000000000000000000000000000000900463ffffffff1680630df10d7d146100885780631aa3a0081461010357806335cea2881461010d5780634a8393f3146102045780634bf1e41d146102c8578063bebe7d0b14610371578063c7b7eb34146103d6575b600080fd5b34801561009457600080fd5b506100c1600480360360208110156100ab57600080fd5b810190808035906020019092919050505061043f565b604051808273ffffffffffffffffffffffffffffffffffffffff1673ffffffffffffffffffffffffffffffffffffffff16815260200191505060405180910390f35b61010b61047d565b005b34801561011957600080fd5b506101466004803603602081101561013057600080fd5b8101908080359060200190929190505050610551565b604051808673ffffffffffffffffffffffffffffffffffffffff1673ffffffffffffffffffffffffffffffffffffffff1681526020018563ffffffff1663ffffffff1681526020018467ffffffffffffffff1667ffffffffffffffff1681526020018373ffffffffffffffffffffffffffffffffffffffff1673ffffffffffffffffffffffffffffffffffffffff1681526020018267ffffffffffffffff1667ffffffffffffffff1681526020019550505050505060405180910390f35b34801561021057600080fd5b5061023d6004803603602081101561022757600080fd5b810190808035906020019092919050505061060e565b604051808573ffffffffffffffffffffffffffffffffffffffff1673ffffffffffffffffffffffffffffffffffffffff1681526020018463ffffffff1663ffffffff1681526020018367ffffffffffffffff1667ffffffffffffffff1681526020018267ffffffffffffffff1667ffffffffffffffff16815260200194505050505060405180910390f35b3480156102d457600080fd5b5061036f600480360360a08110156102eb57600080fd5b81019080803573ffffffffffffffffffffffffffffffffffffffff169060200190929190803563ffffffff169060200190929190803567ffffffffffffffff169060200190929190803573ffffffffffffffffffffffffffffffffffffffff169060200190929190803567ffffffffffffffff1690602001909291905050506106a5565b005b34801561037d57600080fd5b506103c06004803603602081101561039457600080fd5b81019080803573ffffffffffffffffffffffffffffffffffffffff169060200190929190505050610a82565b6040518082815260200191505060405180910390f35b3480156103e257600080fd5b5061043d600480360360608110156103f957600080fd5b81019080803563ffffffff169060200190929190803567ffffffffffffffff169060200190929190803567ffffffffffffffff169060200190929190505050610a9a565b005b60018181548110151561044e57fe5b906000526020600020016000915054906101000a900473ffffffffffffffffffffffffffffffffffffffff1681565b662386f26fc100003411151561049257600080fd5b60016000803373ffffffffffffffffffffffffffffffffffffffff1673ffffffffffffffffffffffffffffffffffffffff16815260200190815260200160002060006101000a81548160ff02191690831515021790555060013390806001815401808255809150509060018203906000526020600020016000909192909190916101000a81548173ffffffffffffffffffffffffffffffffffffffff021916908373ffffffffffffffffffffffffffffffffffffffff16021790555050565b60038181548110151561056057fe5b90600052602060002090600202016000915090508060000160009054906101000a900473ffffffffffffffffffffffffffffffffffffffff16908060000160149054906101000a900463ffffffff16908060000160189054906101000a900467ffffffffffffffff16908060010160009054906101000a900473ffffffffffffffffffffffffffffffffffffffff16908060010160149054906101000a900467ffffffffffffffff16905085565b60028181548110151561061d57fe5b90600052602060002090600202016000915090508060000160009054906101000a900473ffffffffffffffffffffffffffffffffffffffff16908060000160149054906101000a900463ffffffff16908060000160189054906101000a900467ffffffffffffffff16908060010160009054906101000a900467ffffffffffffffff16905084565b600115156000803373ffffffffffffffffffffffffffffffffffffffff1673ffffffffffffffffffffffffffffffffffffffff16815260200190815260200160002060009054906101000a900460ff16151514151561070357600080fd5b6000600460008773ffffffffffffffffffffffffffffffffffffffff1673ffffffffffffffffffffffffffffffffffffffff168152602001908152602001600020549050806002805490501180156107c657508573ffffffffffffffffffffffffffffffffffffffff1660028281548110151561077c57fe5b906000526020600020906002020160000160009054906101000a900473ffffffffffffffffffffffffffffffffffffffff1673ffffffffffffffffffffffffffffffffffffffff16145b15610a75578463ffffffff166002828154811015156107e157fe5b906000526020600020906002020160000160149054906101000a900463ffffffff1663ffffffff1614151561081557600080fd5b600360a0604051908101604052808873ffffffffffffffffffffffffffffffffffffffff1681526020018763ffffffff1681526020018667ffffffffffffffff1681526020018573ffffffffffffffffffffffffffffffffffffffff1681526020018467ffffffffffffffff168152509080600181540180825580915050906001820390600052602060002090600202016000909192909190915060008201518160000160006101000a81548173ffffffffffffffffffffffffffffffffffffffff021916908373ffffffffffffffffffffffffffffffffffffffff16021790555060208201518160000160146101000a81548163ffffffff021916908363ffffffff16021790555060408201518160000160186101000a81548167ffffffffffffffff021916908367ffffffffffffffff16021790555060608201518160010160006101000a81548173ffffffffffffffffffffffffffffffffffffffff021916908373ffffffffffffffffffffffffffffffffffffffff16021790555060808201518160010160146101000a81548167ffffffffffffffff021916908367ffffffffffffffff1602179055505050508573ffffffffffffffffffffffffffffffffffffffff167fec5e6c114c66885dc840a2a9cf41618392bd7cf1b70d0aee6995039f0b99c7ea868686604051808463ffffffff1663ffffffff1681526020018367ffffffffffffffff1667ffffffffffffffff1681526020018273ffffffffffffffffffffffffffffffffffffffff1673ffffffffffffffffffffffffffffffffffffffff168152602001935050505060405180910390a2610a7a565b600080fd5b505050505050565b60046020528060005260406000206000915090505481565b600115156000803373ffffffffffffffffffffffffffffffffffffffff1673ffffffffffffffffffffffffffffffffffffffff16815260200190815260200160002060009054906101000a900460ff161515141515610af857600080fd5b60018267ffffffffffffffff1610151515610b1257600080fd5b6000600460003373ffffffffffffffffffffffffffffffffffffffff1673ffffffffffffffffffffffffffffffffffffffff16815260200190815260200160002054905060026080604051908101604052803373ffffffffffffffffffffffffffffffffffffffff1681526020018663ffffffff1681526020018567ffffffffffffffff1681526020018467ffffffffffffffff168152509080600181540180825580915050906001820390600052602060002090600202016000909192909190915060008201518160000160006101000a81548173ffffffffffffffffffffffffffffffffffffffff021916908373ffffffffffffffffffffffffffffffffffffffff16021790555060208201518160000160146101000a81548163ffffffff021916908363ffffffff16021790555060408201518160000160186101000a81548167ffffffffffffffff021916908367ffffffffffffffff16021790555060608201518160010160006101000a81548167ffffffffffffffff021916908367ffffffffffffffff160217905550505050600281815481101515610cb357fe5b906000526020600020906002020160000160149054906101000a900463ffffffff1663ffffffff16600282815481101515610cea57fe5b906000526020600020906002020160000160009054906101000a900473ffffffffffffffffffffffffffffffffffffffff1673ffffffffffffffffffffffffffffffffffffffff167fa0f3253ce6fbf79172a7680f6e213691254cba697d479da9465698dc67f8e805600284815481101515610d6257fe5b906000526020600020906002020160000160189054906101000a900467ffffffffffffffff16604051808267ffffffffffffffff1667ffffffffffffffff16815260200191505060405180910390a35050505056fea165627a7a72305820b91d1545837bff72bddc62e43945d55061968cb6dc16ab9c2c79a970de03b3070029",
  "source": "pragma solidity >=0.4.22 <0.6.0;\n\nimport \"./registerMeter.sol\";\n\ncontract orderBook is registerMeter {\n\n    struct SellOrder {\n    address producer;\n    uint32 price;\n    uint64 energy;\n    uint64 timestamp;\n  }\n\n  struct BuyOrder {\n    address producer;\n    uint32 price;\n    uint64 energy;\n    address meterAddress;\n    uint64 timestamp;\n  }\n\n  SellOrder[] public sellOrders;\n  BuyOrder[] public buyOrders;\n\n  mapping(address => uint) public sellIndex;\n\n  event sellEvent(address indexed producer, uint32 indexed price, uint64 energy);\n  event buyEvent(address indexed producer, uint32 price, uint64 energy, address meterAddress);\n\n  function sellEnergy(uint32 aprice, uint64 aenergy, uint64 atimestamp) onlyRegisteredMeters public {\n    // require a minimum offer of 1 kWh\n    require(aenergy >= 1);\n\n    // record the sell order\n    uint idx = sellIndex[msg.sender];\n\n    sellOrders.push(SellOrder({\n      producer: msg.sender,\n      price: aprice,\n      energy: aenergy,\n      timestamp: atimestamp\n      }));\n    emit sellEvent(sellOrders[idx].producer, sellOrders[idx].price, sellOrders[idx].energy);\n  }\n\n  function buyEnergy(address aproducer, uint32 aprice, uint64 aenergy, address mAddress, uint64 atimestamp) onlyRegisteredMeters public {\n    // find offer by producer (aproducer)\n    uint idx = sellIndex[aproducer];\n\n    // check if the offer exists...\n    if ((sellOrders.length > idx) && (sellOrders[idx].producer == aproducer)) {\n      // check if it matches the price\n      require(sellOrders[idx].price == aprice);\n\n      // record the user's choice\n      buyOrders.push(BuyOrder({\n        producer: aproducer,\n        price: aprice,\n        energy: aenergy,\n        meterAddress: mAddress,\n        timestamp: atimestamp\n        }));\n      emit buyEvent(aproducer, aprice, aenergy, mAddress);\n    } else {\n      revert();\n    }\n  }\n\n}\n",
  "sourcePath": "/home/rishabh/energytrade/contracts/orderBook.sol",
  "compiler": {
    "name": "solc",
    "version": "0.5.0+commit.1d4f565a.Emscripten.clang"
  },
  "schemaVersion": "3.0.6",
  "updatedAt": "2019-06-24T10:29:11.673Z",
  "devdoc": {
    "methods": {}
  },
  "userdoc": {
    "methods": {}
  }
}