{
  "contractName": "registerMeter",
  "abi": [
    {
      "constant": true,
      "inputs": [
        {
          "name": "",
          "type": "uint256"
        }
      ],
      "name": "registeredMeters",
      "outputs": [
        {
          "name": "",
          "type": "address"
        }
      ],
      "payable": false,
      "stateMutability": "view",
      "type": "function"
    },
    {
      "inputs": [],
      "payable": true,
      "stateMutability": "payable",
      "type": "constructor"
    },
    {
      "constant": false,
      "inputs": [],
      "name": "register",
      "outputs": [],
      "payable": true,
      "stateMutability": "payable",
      "type": "function"
    }
  ],
  "bytecode": "0x6080604052610214806100136000396000f3fe60806040526004361061004c576000357c0100000000000000000000000000000000000000000000000000000000900463ffffffff1680630df10d7d146100515780631aa3a008146100cc575b600080fd5b34801561005d57600080fd5b5061008a6004803603602081101561007457600080fd5b81019080803590602001909291905050506100d6565b604051808273ffffffffffffffffffffffffffffffffffffffff1673ffffffffffffffffffffffffffffffffffffffff16815260200191505060405180910390f35b6100d4610114565b005b6001818154811015156100e557fe5b906000526020600020016000915054906101000a900473ffffffffffffffffffffffffffffffffffffffff1681565b662386f26fc100003411151561012957600080fd5b60016000803373ffffffffffffffffffffffffffffffffffffffff1673ffffffffffffffffffffffffffffffffffffffff16815260200190815260200160002060006101000a81548160ff02191690831515021790555060013390806001815401808255809150509060018203906000526020600020016000909192909190916101000a81548173ffffffffffffffffffffffffffffffffffffffff021916908373ffffffffffffffffffffffffffffffffffffffff1602179055505056fea165627a7a723058204529f26aed7a8db28614d3ec234ce9aa33eb5d61e05b9b65ee3d9e0815a069010029",
  "source": "pragma solidity >=0.4.22 <0.6.0;\n\ncontract registerMeter {\n    mapping (address => bool) registeredMeter;\n    address[] public registeredMeters;\n\n    constructor() public payable  {\n    }\n\n    function register() public payable{\n        require(msg.value > .01 ether);\n        registeredMeter[msg.sender] = true;\n        registeredMeters.push(msg.sender);\n    }\n\n    //modifier to ensure that only registered meters can cretae orders\n    modifier onlyRegisteredMeters {\n        require (registeredMeter[msg.sender] == true);\n        _;\n    }\n}\n",
  "sourcePath": "/home/rishabh/energytrade/contracts/registerMeter.sol",
  "compiler": {
    "name": "solc",
    "version": "0.5.0+commit.1d4f565a.Emscripten.clang"
  },
  "schemaVersion": "3.0.6",
  "updatedAt": "2019-06-24T10:29:11.683Z",
  "devdoc": {
    "methods": {}
  },
  "userdoc": {
    "methods": {}
  }
}